{
  "_format": "hh-sol-artifact-1",
  "contractName": "StakingContract",
  "sourceName": "contracts/StakingContract.sol",
  "abi": [
    {
      "anonymous": false,
      "inputs": [
        {
          "indexed": true,
          "internalType": "address",
          "name": "staker",
          "type": "address"
        },
        {
          "indexed": true,
          "internalType": "address",
          "name": "token",
          "type": "address"
        },
        {
          "indexed": false,
          "internalType": "uint256",
          "name": "amount",
          "type": "uint256"
        }
      ],
      "name": "RewardClaimed",
      "type": "event"
    },
    {
      "anonymous": false,
      "inputs": [
        {
          "indexed": true,
          "internalType": "address",
          "name": "staker",
          "type": "address"
        },
        {
          "indexed": true,
          "internalType": "address",
          "name": "token",
          "type": "address"
        },
        {
          "indexed": false,
          "internalType": "uint256",
          "name": "amount",
          "type": "uint256"
        }
      ],
      "name": "Staked",
      "type": "event"
    },
    {
      "anonymous": false,
      "inputs": [
        {
          "indexed": true,
          "internalType": "address",
          "name": "staker",
          "type": "address"
        },
        {
          "indexed": true,
          "internalType": "address",
          "name": "token",
          "type": "address"
        },
        {
          "indexed": false,
          "internalType": "uint256",
          "name": "amount",
          "type": "uint256"
        }
      ],
      "name": "Unstaked",
      "type": "event"
    },
    {
      "inputs": [
        {
          "internalType": "address",
          "name": "tokenAddress",
          "type": "address"
        }
      ],
      "name": "checkRewards",
      "outputs": [
        {
          "internalType": "uint256",
          "name": "",
          "type": "uint256"
        }
      ],
      "stateMutability": "view",
      "type": "function"
    },
    {
      "inputs": [
        {
          "internalType": "address",
          "name": "tokenAddress",
          "type": "address"
        }
      ],
      "name": "claimRewards",
      "outputs": [],
      "stateMutability": "nonpayable",
      "type": "function"
    },
    {
      "inputs": [
        {
          "internalType": "address",
          "name": "",
          "type": "address"
        },
        {
          "internalType": "address",
          "name": "",
          "type": "address"
        }
      ],
      "name": "lastStakedTime",
      "outputs": [
        {
          "internalType": "uint256",
          "name": "",
          "type": "uint256"
        }
      ],
      "stateMutability": "view",
      "type": "function"
    },
    {
      "inputs": [
        {
          "internalType": "address",
          "name": "",
          "type": "address"
        }
      ],
      "name": "rewardRates",
      "outputs": [
        {
          "internalType": "uint256",
          "name": "",
          "type": "uint256"
        }
      ],
      "stateMutability": "view",
      "type": "function"
    },
    {
      "inputs": [
        {
          "internalType": "address",
          "name": "tokenAddress",
          "type": "address"
        },
        {
          "internalType": "uint256",
          "name": "rate",
          "type": "uint256"
        }
      ],
      "name": "setRewardRate",
      "outputs": [],
      "stateMutability": "nonpayable",
      "type": "function"
    },
    {
      "inputs": [
        {
          "internalType": "address",
          "name": "tokenAddress",
          "type": "address"
        },
        {
          "internalType": "uint256",
          "name": "amount",
          "type": "uint256"
        }
      ],
      "name": "stake",
      "outputs": [],
      "stateMutability": "nonpayable",
      "type": "function"
    },
    {
      "inputs": [
        {
          "internalType": "address",
          "name": "",
          "type": "address"
        },
        {
          "internalType": "address",
          "name": "",
          "type": "address"
        }
      ],
      "name": "stakedBalances",
      "outputs": [
        {
          "internalType": "uint256",
          "name": "",
          "type": "uint256"
        }
      ],
      "stateMutability": "view",
      "type": "function"
    },
    {
      "inputs": [
        {
          "internalType": "address",
          "name": "tokenAddress",
          "type": "address"
        },
        {
          "internalType": "uint256",
          "name": "amount",
          "type": "uint256"
        }
      ],
      "name": "unstake",
      "outputs": [],
      "stateMutability": "nonpayable",
      "type": "function"
    }
  ],
  "bytecode": "0x608060405234801561001057600080fd5b50611381806100206000396000f3fe608060405234801561001057600080fd5b50600436106100885760003560e01c8063a45609961161005b578063a456099614610139578063adc9772e14610169578063c2a672e014610185578063ef5cfb8c146101a157610088565b8063046ff0d31461008d5780632af78cab146100bd5780633d3b2603146100ed578063812a71d51461011d575b600080fd5b6100a760048036038101906100a29190610ce0565b6101bd565b6040516100b49190610d26565b60405180910390f35b6100d760048036038101906100d29190610d41565b610251565b6040516100e49190610d26565b60405180910390f35b61010760048036038101906101029190610ce0565b610276565b6040516101149190610d26565b60405180910390f35b61013760048036038101906101329190610dad565b61028e565b005b610153600480360381019061014e9190610d41565b61031a565b6040516101609190610d26565b60405180910390f35b610183600480360381019061017e9190610dad565b61033f565b005b61019f600480360381019061019a9190610dad565b6105c3565b005b6101bb60048036038101906101b69190610ce0565b610882565b005b600080600260008473ffffffffffffffffffffffffffffffffffffffff1673ffffffffffffffffffffffffffffffffffffffff1681526020019081526020016000205411610240576040517f08c379a000000000000000000000000000000000000000000000000000000000815260040161023790610e4a565b60405180910390fd5b61024a3383610b02565b9050919050565b6001602052816000526040600020602052806000526040600020600091509150505481565b60026020528060005260406000206000915090505481565b60008110156102d2576040517f08c379a00000000000000000000000000000000000000000000000000000000081526004016102c990610eb6565b60405180910390fd5b80600260008473ffffffffffffffffffffffffffffffffffffffff1673ffffffffffffffffffffffffffffffffffffffff168152602001908152602001600020819055505050565b6000602052816000526040600020602052806000526040600020600091509150505481565b60008111610382576040517f08c379a000000000000000000000000000000000000000000000000000000000815260040161037990610f48565b60405180910390fd5b60008290508073ffffffffffffffffffffffffffffffffffffffff166323b872dd3330856040518463ffffffff1660e01b81526004016103c493929190610f77565b6020604051808303816000875af11580156103e3573d6000803e3d6000fd5b505050506040513d601f19601f820116820180604052508101906104079190610fe6565b610446576040517f08c379a000000000000000000000000000000000000000000000000000000000815260040161043d9061105f565b60405180910390fd5b816000803373ffffffffffffffffffffffffffffffffffffffff1673ffffffffffffffffffffffffffffffffffffffff16815260200190815260200160002060008573ffffffffffffffffffffffffffffffffffffffff1673ffffffffffffffffffffffffffffffffffffffff16815260200190815260200160002060008282546104d191906110ae565b9250508190555042600160003373ffffffffffffffffffffffffffffffffffffffff1673ffffffffffffffffffffffffffffffffffffffff16815260200190815260200160002060008573ffffffffffffffffffffffffffffffffffffffff1673ffffffffffffffffffffffffffffffffffffffff168152602001908152602001600020819055508273ffffffffffffffffffffffffffffffffffffffff163373ffffffffffffffffffffffffffffffffffffffff167f5dac0c1b1112564a045ba943c9d50270893e8e826c49be8e7073adc713ab7bd7846040516105b69190610d26565b60405180910390a3505050565b60008111610606576040517f08c379a00000000000000000000000000000000000000000000000000000000081526004016105fd90611154565b60405180910390fd5b806000803373ffffffffffffffffffffffffffffffffffffffff1673ffffffffffffffffffffffffffffffffffffffff16815260200190815260200160002060008473ffffffffffffffffffffffffffffffffffffffff1673ffffffffffffffffffffffffffffffffffffffff1681526020019081526020016000205410156106c4576040517f08c379a00000000000000000000000000000000000000000000000000000000081526004016106bb906111c0565b60405180910390fd5b60008290508073ffffffffffffffffffffffffffffffffffffffff1663a9059cbb33846040518363ffffffff1660e01b81526004016107049291906111e0565b6020604051808303816000875af1158015610723573d6000803e3d6000fd5b505050506040513d601f19601f820116820180604052508101906107479190610fe6565b610786576040517f08c379a000000000000000000000000000000000000000000000000000000000815260040161077d9061105f565b60405180910390fd5b816000803373ffffffffffffffffffffffffffffffffffffffff1673ffffffffffffffffffffffffffffffffffffffff16815260200190815260200160002060008573ffffffffffffffffffffffffffffffffffffffff1673ffffffffffffffffffffffffffffffffffffffff16815260200190815260200160002060008282546108119190611209565b925050819055508273ffffffffffffffffffffffffffffffffffffffff163373ffffffffffffffffffffffffffffffffffffffff167fd8654fcc8cf5b36d30b3f5e4688fc78118e6d68de60b9994e09902268b57c3e3846040516108759190610d26565b60405180910390a3505050565b6000600260008373ffffffffffffffffffffffffffffffffffffffff1673ffffffffffffffffffffffffffffffffffffffff1681526020019081526020016000205411610904576040517f08c379a00000000000000000000000000000000000000000000000000000000081526004016108fb90610e4a565b60405180910390fd5b60006109103383610b02565b905060008111610955576040517f08c379a000000000000000000000000000000000000000000000000000000000815260040161094c90611289565b60405180910390fd5b42600160003373ffffffffffffffffffffffffffffffffffffffff1673ffffffffffffffffffffffffffffffffffffffff16815260200190815260200160002060008473ffffffffffffffffffffffffffffffffffffffff1673ffffffffffffffffffffffffffffffffffffffff1681526020019081526020016000208190555060008290508073ffffffffffffffffffffffffffffffffffffffff1663a9059cbb33846040518363ffffffff1660e01b8152600401610a169291906111e0565b6020604051808303816000875af1158015610a35573d6000803e3d6000fd5b505050506040513d601f19601f82011682018060405250810190610a599190610fe6565b610a98576040517f08c379a0000000000000000000000000000000000000000000000000000000008152600401610a8f9061105f565b60405180910390fd5b8273ffffffffffffffffffffffffffffffffffffffff163373ffffffffffffffffffffffffffffffffffffffff167f0aa4d283470c904c551d18bb894d37e17674920f3261a7f854be501e25f421b784604051610af59190610d26565b60405180910390a3505050565b600080600160008573ffffffffffffffffffffffffffffffffffffffff1673ffffffffffffffffffffffffffffffffffffffff16815260200190815260200160002060008473ffffffffffffffffffffffffffffffffffffffff1673ffffffffffffffffffffffffffffffffffffffff1681526020019081526020016000205442610b8d9190611209565b90506000600260008573ffffffffffffffffffffffffffffffffffffffff1673ffffffffffffffffffffffffffffffffffffffff1681526020019081526020016000205490506201518082826000808973ffffffffffffffffffffffffffffffffffffffff1673ffffffffffffffffffffffffffffffffffffffff16815260200190815260200160002060008873ffffffffffffffffffffffffffffffffffffffff1673ffffffffffffffffffffffffffffffffffffffff16815260200190815260200160002054610c5f91906112a9565b610c6991906112a9565b610c73919061131a565b9250505092915050565b600080fd5b600073ffffffffffffffffffffffffffffffffffffffff82169050919050565b6000610cad82610c82565b9050919050565b610cbd81610ca2565b8114610cc857600080fd5b50565b600081359050610cda81610cb4565b92915050565b600060208284031215610cf657610cf5610c7d565b5b6000610d0484828501610ccb565b91505092915050565b6000819050919050565b610d2081610d0d565b82525050565b6000602082019050610d3b6000830184610d17565b92915050565b60008060408385031215610d5857610d57610c7d565b5b6000610d6685828601610ccb565b9250506020610d7785828601610ccb565b9150509250929050565b610d8a81610d0d565b8114610d9557600080fd5b50565b600081359050610da781610d81565b92915050565b60008060408385031215610dc457610dc3610c7d565b5b6000610dd285828601610ccb565b9250506020610de385828601610d98565b9150509250929050565b600082825260208201905092915050565b7f4e6f207265776172647320666f72207468697320746f6b656e00000000000000600082015250565b6000610e34601983610ded565b9150610e3f82610dfe565b602082019050919050565b60006020820190508181036000830152610e6381610e27565b9050919050565b7f5265776172642072617465206d757374206265206e6f6e2d6e65676174697665600082015250565b6000610ea0602083610ded565b9150610eab82610e6a565b602082019050919050565b60006020820190508181036000830152610ecf81610e93565b9050919050565b7f416d6f756e74207374616b6564206d757374206265206772656174657220746860008201527f616e203000000000000000000000000000000000000000000000000000000000602082015250565b6000610f32602483610ded565b9150610f3d82610ed6565b604082019050919050565b60006020820190508181036000830152610f6181610f25565b9050919050565b610f7181610ca2565b82525050565b6000606082019050610f8c6000830186610f68565b610f996020830185610f68565b610fa66040830184610d17565b949350505050565b60008115159050919050565b610fc381610fae565b8114610fce57600080fd5b50565b600081519050610fe081610fba565b92915050565b600060208284031215610ffc57610ffb610c7d565b5b600061100a84828501610fd1565b91505092915050565b7f546f6b656e207472616e73666572206661696c65640000000000000000000000600082015250565b6000611049601583610ded565b915061105482611013565b602082019050919050565b600060208201905081810360008301526110788161103c565b9050919050565b7f4e487b7100000000000000000000000000000000000000000000000000000000600052601160045260246000fd5b60006110b982610d0d565b91506110c483610d0d565b92508282019050808211156110dc576110db61107f565b5b92915050565b7f416d6f756e7420756e7374616b6564206d75737420626520677265617465722060008201527f7468616e20300000000000000000000000000000000000000000000000000000602082015250565b600061113e602683610ded565b9150611149826110e2565b604082019050919050565b6000602082019050818103600083015261116d81611131565b9050919050565b7f496e73756666696369656e74207374616b65642062616c616e63650000000000600082015250565b60006111aa601b83610ded565b91506111b582611174565b602082019050919050565b600060208201905081810360008301526111d98161119d565b9050919050565b60006040820190506111f56000830185610f68565b6112026020830184610d17565b9392505050565b600061121482610d0d565b915061121f83610d0d565b92508282039050818111156112375761123661107f565b5b92915050565b7f4e6f207265776172647320746f20636c61696d00000000000000000000000000600082015250565b6000611273601383610ded565b915061127e8261123d565b602082019050919050565b600060208201905081810360008301526112a281611266565b9050919050565b60006112b482610d0d565b91506112bf83610d0d565b92508282026112cd81610d0d565b915082820484148315176112e4576112e361107f565b5b5092915050565b7f4e487b7100000000000000000000000000000000000000000000000000000000600052601260045260246000fd5b600061132582610d0d565b915061133083610d0d565b9250826113405761133f6112eb565b5b82820490509291505056fea2646970667358221220fccc7923149224799742b746ac8d3825f68114f193c28c0ee1041146465b281264736f6c63430008130033",
  "linkReferences": {},
  "deployedLinkReferences": {}
}